:1000000009C021C020C01FC01EC01DC04DC01BC0E4
:100010001AC01AC011241FBECFE9CDBF10E0A0E660
:10002000B0E0ECEAF3E002C005900D92A236B10711
:10003000D9F720E0A2E6B0E001C01D92AA37B207CE
:10004000E1F7AFD1B1C1DCCF1F920F920FB60F9283
:1000500011242F933F938F93EF93FF93809162002E
:10006000E82FF0E024B135B1EE0FFF1FEC58FF4F41
:10007000318320838F5F823018F48093620002C046
:1000800010926200809162008F5F87B980E28A954A
:10009000F1F7369AFF91EF918F913F912F910F9049
:1000A0000FBE0F901F9018951F920F920FB60F92D0
:1000B00011242F933F938F939F93B19B0EC08091F8
:1000C0006000882321F08150809360000CC0109262
:1000D0006B0089E18093600006C081E080936B0033
:1000E00089E18093600080916B00882309F469C0E6
:1000F00080916E0090916F00019690936F008093B5
:100100006E0080916E0090916F00803D974008F4E2
:100110006CC080ED97E090936F0080936E008091AB
:10012000690090916A00019690936A00809369003B
:100130008091690090916A00873E934009F055C014
:1001400010926A0010926900809167009091680097
:10015000019690936800809367008091670090916A
:100160006800CB9709F041C01092680010926700B8
:10017000809165009091660001969093660080934F
:1001800065008091650090916600CB9771F51092A3
:100190006600109265008091630090916400019662
:1001A0009093640080936300809163009091640059
:1001B0000697D8F087E090E0909364008093630006
:1001C00014C010926A001092690010926800109298
:1001D0006700109266001092650010926400109201
:1001E000630010926F0010926E00B09919C0809158
:1001F0006B00811115C020917200309173008091C5
:100200007800909179002817390750F0809170009C
:10021000909171000196909371008093700004C0DA
:100220001092710010927000B09917C02091720066
:1002300030917300809178009091790028173907E8
:1002400060F4B39B0AC080916C0090916D000196A0
:1002500090936D0080936C0004C010926D0010921A
:100260006C0012BE9F918F913F912F910F900FBE06
:100270000F901F90189580E886BD16BC88E087BB5C
:1002800083E188BB14BA81E087B98EEE86B913B8D2
:1002900082E08FBD83E083BF12BE85E986BF19BCB3
:1002A00084E089BF78940895E4E7F0E0808191814B
:1002B0009093730080937200828193819093790070
:1002C000809378000895CF93F894C0916B00789450
:1002D000EBDFCC23E9F080916E0090916F00803DC0
:1002E0009740B0F08091630090916400059708F406
:1002F00054C00EC080916E0090916F00803D974079
:1003000038F08091630090916400059708F443C031
:100310002091720030917300809178009091790063
:100320002817390758F0B09909C080917000909152
:100330007100883B9B4010F0C39A31C0B09916C041
:100340002091720030917300809178009091790033
:100350002817390758F4B39B09C080916C0090911D
:100360006D008938934110F0C39819C0B0990FC03F
:100370002091720030917300809178009091790003
:100380002817390720F0B39B02C0C39A08C0B09B5E
:1003900006C0C39804C0C39AADCFC39AABCFCF9168
:0C03A000089569DF90DFFECFF894FFCFD6
:0203AC00190036
:00000001FF
